{"abi":[{"type":"constructor","inputs":[{"name":"_pqc","type":"string","internalType":"string"},{"name":"_rsa","type":"string","internalType":"string"},{"name":"_encFlag","type":"string","internalType":"string"}],"stateMutability":"nonpayable"},{"type":"function","name":"getEncryptedFlag","inputs":[],"outputs":[{"name":"","type":"string","internalType":"string"}],"stateMutability":"view"},{"type":"function","name":"getPublicKeys","inputs":[],"outputs":[{"name":"","type":"string","internalType":"string"},{"name":"","type":"string","internalType":"string"}],"stateMutability":"view"},{"type":"function","name":"publicKeyPQC","inputs":[],"outputs":[{"name":"","type":"string","internalType":"string"}],"stateMutability":"view"},{"type":"function","name":"publicKeyRSA","inputs":[],"outputs":[{"name":"","type":"string","internalType":"string"}],"stateMutability":"view"}],"bytecode":{"object":"0x608060405234801561000f575f5ffd5b50604051610a2d380380610a2d833981810160405281019061003191906101b5565b825f908161003f9190610469565b50816001908161004f9190610469565b50806002908161005f9190610469565b50505050610538565b5f604051905090565b5f5ffd5b5f5ffd5b5f5ffd5b5f5ffd5b5f601f19601f8301169050919050565b7f4e487b71000000000000000000000000000000000000000000000000000000005f52604160045260245ffd5b6100c782610081565b810181811067ffffffffffffffff821117156100e6576100e5610091565b5b80604052505050565b5f6100f8610068565b905061010482826100be565b919050565b5f67ffffffffffffffff82111561012357610122610091565b5b61012c82610081565b9050602081019050919050565b8281835e5f83830152505050565b5f61015961015484610109565b6100ef565b9050828152602081018484840111156101755761017461007d565b5b610180848285610139565b509392505050565b5f82601f83011261019c5761019b610079565b5b81516101ac848260208601610147565b91505092915050565b5f5f5f606084860312156101cc576101cb610071565b5b5f84015167ffffffffffffffff8111156101e9576101e8610075565b5b6101f586828701610188565b935050602084015167ffffffffffffffff81111561021657610215610075565b5b61022286828701610188565b925050604084015167ffffffffffffffff81111561024357610242610075565b5b61024f86828701610188565b9150509250925092565b5f81519050919050565b7f4e487b71000000000000000000000000000000000000000000000000000000005f52602260045260245ffd5b5f60028204905060018216806102a757607f821691505b6020821081036102ba576102b9610263565b5b50919050565b5f819050815f5260205f209050919050565b5f6020601f8301049050919050565b5f82821b905092915050565b5f6008830261031c7fffffffffffffffffffffffffffffffffffffffffffffffffffffffffffffffff826102e1565b61032686836102e1565b95508019841693508086168417925050509392505050565b5f819050919050565b5f819050919050565b5f61036a6103656103608461033e565b610347565b61033e565b9050919050565b5f819050919050565b61038383610350565b61039761038f82610371565b8484546102ed565b825550505050565b5f5f905090565b6103ae61039f565b6103b981848461037a565b505050565b5b818110156103dc576103d15f826103a6565b6001810190506103bf565b5050565b601f821115610421576103f2816102c0565b6103fb846102d2565b8101602085101561040a578190505b61041e610416856102d2565b8301826103be565b50505b505050565b5f82821c905092915050565b5f6104415f1984600802610426565b1980831691505092915050565b5f6104598383610432565b9150826002028217905092915050565b61047282610259565b67ffffffffffffffff81111561048b5761048a610091565b5b6104958254610290565b6104a08282856103e0565b5f60209050601f8311600181146104d1575f84156104bf578287015190505b6104c9858261044e565b865550610530565b601f1984166104df866102c0565b5f5b82811015610506578489015182556001820191506020850194506020810190506104e1565b86831015610523578489015161051f601f891682610432565b8355505b6001600288020188555050505b505050505050565b6104e8806105455f395ff3fe608060405234801561000f575f5ffd5b506004361061004a575f3560e01c806315285fed1461004e57806335facdf31461006d5780636aed6c9e1461008b578063bcfd1467146100a9575b5f5ffd5b6100566100c7565b604051610064929190610400565b60405180910390f35b6100756101e9565b6040516100829190610435565b60405180910390f35b610093610275565b6040516100a09190610435565b60405180910390f35b6100b1610305565b6040516100be9190610435565b60405180910390f35b6060805f60018180546100d990610482565b80601f016020809104026020016040519081016040528092919081815260200182805461010590610482565b80156101505780601f1061012757610100808354040283529160200191610150565b820191905f5260205f20905b81548152906001019060200180831161013357829003601f168201915b5050505050915080805461016390610482565b80601f016020809104026020016040519081016040528092919081815260200182805461018f90610482565b80156101da5780601f106101b1576101008083540402835291602001916101da565b820191905f5260205f20905b8154815290600101906020018083116101bd57829003601f168201915b50505050509050915091509091565b600180546101f690610482565b80601f016020809104026020016040519081016040528092919081815260200182805461022290610482565b801561026d5780601f106102445761010080835404028352916020019161026d565b820191905f5260205f20905b81548152906001019060200180831161025057829003601f168201915b505050505081565b60606002805461028490610482565b80601f01602080910402602001604051908101604052809291908181526020018280546102b090610482565b80156102fb5780601f106102d2576101008083540402835291602001916102fb565b820191905f5260205f20905b8154815290600101906020018083116102de57829003601f168201915b5050505050905090565b5f805461031190610482565b80601f016020809104026020016040519081016040528092919081815260200182805461033d90610482565b80156103885780601f1061035f57610100808354040283529160200191610388565b820191905f5260205f20905b81548152906001019060200180831161036b57829003601f168201915b505050505081565b5f81519050919050565b5f82825260208201905092915050565b8281835e5f83830152505050565b5f601f19601f8301169050919050565b5f6103d282610390565b6103dc818561039a565b93506103ec8185602086016103aa565b6103f5816103b8565b840191505092915050565b5f6040820190508181035f83015261041881856103c8565b9050818103602083015261042c81846103c8565b90509392505050565b5f6020820190508181035f83015261044d81846103c8565b905092915050565b7f4e487b71000000000000000000000000000000000000000000000000000000005f52602260045260245ffd5b5f600282049050600182168061049957607f821691505b6020821081036104ac576104ab610455565b5b5091905056fea2646970667358221220749f5eb8662689b902b302e6de2fc4edfec376ef1f409d6ab9f3add8da526e5464736f6c634300081c0033","linkReferences":{}},"methodIdentifiers":{"getEncryptedFlag()":"6aed6c9e","getPublicKeys()":"15285fed","publicKeyPQC()":"bcfd1467","publicKeyRSA()":"35facdf3"},"id":16}